{
  "contractName": "Transfer",
  "abi": [
    {
      "anonymous": false,
      "inputs": [
        {
          "indexed": true,
          "internalType": "address",
          "name": "from",
          "type": "address"
        },
        {
          "indexed": true,
          "internalType": "address",
          "name": "to",
          "type": "address"
        },
        {
          "indexed": false,
          "internalType": "uint256",
          "name": "amount",
          "type": "uint256"
        }
      ],
      "name": "Transferer",
      "type": "event"
    },
    {
      "constant": false,
      "inputs": [
        {
          "internalType": "address payable",
          "name": "to",
          "type": "address"
        }
      ],
      "name": "transfer",
      "outputs": [],
      "payable": true,
      "stateMutability": "payable",
      "type": "function"
    }
  ],
  "bytecode": "0x608060405234801561001057600080fd5b50610269806100206000396000f3fe60806040526004361061001e5760003560e01c80631a69523014610023575b600080fd5b6100656004803603602081101561003957600080fd5b81019080803573ffffffffffffffffffffffffffffffffffffffff169060200190929190505050610067565b005b600073ffffffffffffffffffffffffffffffffffffffff168173ffffffffffffffffffffffffffffffffffffffff16141561010a576040517f08c379a00000000000000000000000000000000000000000000000000000000081526004018080602001828103825260108152602001807f4164726573736520696e76616c6964650000000000000000000000000000000081525060200191505060405180910390fd5b60003411610163576040517f08c379a00000000000000000000000000000000000000000000000000000000081526004018080602001828103825260228152602001806102136022913960400191505060405180910390fd5b8073ffffffffffffffffffffffffffffffffffffffff166108fc349081150290604051600060405180830381858888f193505050501580156101a9573d6000803e3d6000fd5b508073ffffffffffffffffffffffffffffffffffffffff163373ffffffffffffffffffffffffffffffffffffffff167fb54686c87bb4b3f3c2136de4d66dc98731fe888e46c72d1b31d95e00fbbc8306346040518082815260200191505060405180910390a35056fe4d6f6e74616e7420646f697420c3aa74726520737570c3a9726965757220c3a02030a265627a7a7231582014181b37af84a9240e78680981b742e31834c06ea176ca9a872b056086c3a22764736f6c63430005100032",
  "source": "// SPDX-License-Identifier: MIT\r\npragma solidity ^0.5.0;\r\n\r\ncontract Transfer {\r\n    // Événement corrigé\r\n    event Transferer(address indexed from, address indexed to, uint256 amount); \r\n\r\n    // Fonction de transfert, l'argument _from n'est plus nécessaire ici\r\n    function transfer(address payable to) public payable {\r\n        require(to != address(0), \"Adresse invalide\");\r\n        require(msg.value > 0, \"Montant doit être supérieur à 0\");\r\n\r\n        // Transfert des ethers\r\n        to.transfer(msg.value);\r\n\r\n        // Emission de l'événement\r\n        emit Transferer(msg.sender, to, msg.value);\r\n    }\r\n}\r\n",
  "sourcePath": "C:\\Users\\chaim\\SMARTTEST\\front_end\\src\\contracts\\Transfer.sol",
  "compiler": {
    "name": "solc",
    "version": "0.5.16+commit.9c3226ce.Emscripten.clang"
  },
  "schemaVersion": "3.4.16",
  "updatedAt": "2025-04-20T11:56:26.827Z",
  "devdoc": {
    "methods": {}
  },
  "userdoc": {
    "methods": {}
  }
}